:020000040000FA
:060000000A128A110C280F
:10000800FE00030EF0000A08F1000A128A11DF2927
:100018000A128A110F2883132E30FD000230FE00C9
:100028001630FF00203084000A128A1107220A12B3
:100038008A11B801FA01FB0183010A128A112428E6
:100048000A128A1124220A128A110C30831203130D
:10005800B700B60183120313381C332834284E28FE
:100068000A30AE000030AF003708B400B5013408DC
:10007800B0003508B1000A128A1153210A128A11F8
:10008800831203132E08203E84008313000880384F
:10009800AB0066280A30AE000030AF003708B40065
:1000A800B5013408B0003508B1000A128A1153218D
:1000B8000A128A11831203132E08203E8400831328
:1000C8000008AB0078303806031D6B286C286F28B1
:1000D8000130B607B8013C303606031D7428752870
:1000E80078280130B707B60118303706031D7D2878
:1000F8007E287F28B7010A30AE000030AF003608EE
:10010800B400B5013408B0003508B1000A128A11EC
:1001180053210A128A11831203132E08203E8400E9
:1001280083130008AD000A30AE000030AF000A307B
:10013800F2000030F3003608B400B5013408F400CA
:100148003508F5000A128A11F0200A128A1173087C
:1001580083120313B1007208B0000A128A115321E6
:100168000A128A11831203132E08203E8400831377
:100178000008AC000A30AE000030AF000A30F200D0
:100188000030F3003708B400B5013408F40035082E
:10019800F5000A128A11F0200A128A1173088312D4
:1001A8000313B1007208B0000A128A1153210A120F
:1001B8008A11831203132E08203E8400831300083B
:1001C800AA002A30F2000A128A11AC210A128A11F6
:1001D8002E280A128A110C28F701F31FF428F52893
:1001E800FC28F209F309F20A0319F30A0130F700AF
:1001F800F51FFF2800290729F409F509F40A03194E
:10020800F50A0130F706F801F901720873040319B9
:100218000E290F2944290130F6001B29013003104B
:10022800F20DF30DFF3E031D13290130F607F31FEE
:100238001E291F29122901300310F80DF90DFF3E60
:10024800031D202973087502031D2C2972087402E6
:10025800031C2F29302937297208F4027308031C5C
:10026800F503F502781401300310F30CF20CFF3E8D
:10027800031D38290130F602031D432944291F298B
:1002880077080319482949294E29F809F909F80A6C
:100298000319F90A7908F3007808F20008008312B4
:1002A8000313B301B11F59295A296129B009B109AA
:1002B800B00A0319B10A0130B300AF1F64296529D8
:1002C8006A29AE09AF09AE0A0319AF0A2E082F042E
:1002D80003196F2970299D290130B2007C2901304A
:1002E8000310AE0DAF0DFF3E031D74290130B20798
:1002F800AF1F7F29802973292F083102031D862902
:100308002E083002031C89298A2990292E08B00258
:100318002F08031CB103B10201300310AF0CAE0C5F
:10032800FF3E031D91290130B202031D9C299D291E
:10033800802933080319A129A229A729B009B109DD
:10034800B00A0319B10A3108AF003008AE0008003E
:10035800F60176087207F300730884008313000817
:100368008312031388000430F300760ABD290310B2
:10037800F30DFF3E031DBB290508C339730485002F
:100388009030F4000130F5000130F4020030031C15
:10039800F503F502740A031DD529750A031DD5292D
:1003A800D629C8290130F60704307602031CDD2956
:1003B800DE29AD2908000B1DE229E329FC29831257
:1003C80003130108083E81000130FA070318FB0AED
:1003D8000030FB0711307A06273003197B06031D0E
:1003E800F629F729FB29FA01FB010130B8070B119F
:1003F80071088A00700E8300FE0E7E0E09007E08CA
:100408008A007F0882000A128A1103220A128A11BE
:100418008000840A04087D0603190034FF0A0319C2
:10042800FE0A072A3F3406345B344F3466346D3491
:100438007D3407347F346F3406345B343F343F34C3
:100448000A128A1131220A128A110A128A113D22CD
:100458000A128A110B178B170800831603138801D9
:100468000508C3398500831203130508C3398500BD
:1004780008008316031381128115063083120313B3
:0604880081008B16080044
:02400E00FB3F76
:00000001FF
