:020000040000FA
:060000000A128A11EA2F2A
:1006A60008008316031306083F38860008000A125E
:1006B6008A118C230A128A11831603131114080057
:1006C6000A128A118C230A128A1183160313111532
:1006D60008000A128A118C230A128A118316031340
:1006E60091140800F0000A128A118C230A128A114A
:1006F60070088312031393000800831603138801FE
:10070600050803398500831203130508033985009C
:100716000800831603131419912B922B8C2B1108A6
:100726001F39031D972B982B8C2B08003F3406345A
:100736005B344F3466346D347D3407347F346F3424
:100746003F343F343F343F34831203130618AC2B37
:10075600AD2BAF2B0130B62B8618B22BB32BB52B96
:100766000230B62B003008007E088A007F0882001F
:100776000A128A11B7230A128A118000840A040811
:100786007D0603190034FF0A0319FE0ABB2B0A1261
:100796008A1180230A128A110A128A1154230A1214
:1007A6008A11003083120313A3000130A2008630A1
:1007B600A100A030A0000A128A1155240A128A113B
:1007C6000800F0000A128A118C230A128A11831675
:1007D600031391150A128A118C230A128A118312A5
:1007E60003131308F1007003031DFA2BFB2BFF2BD9
:1007F600831603139116022C8316031391121116F6
:1008060071080800F801F901741C0A2C0B2C112C34
:100816007608F8070318F90A7708F9070130031074
:10082600F60DF70DFF3E031D122C01300310F50CDB
:10083600F40CFF3E031D192C74087504031D242CAB
:10084600252C072C7908F5007808F4000800F2003A
:100856000A128A115A230A128A11A0300A128A1120
:1008660075230A128A1172080A128A1175230A124E
:100876008A110A128A116C230A128A11A1300A12ED
:100886008A1175230A128A1101300A128A11E42389
:100896000A128A11F3000A128A1163230A128A11B4
:1008A600730808008312031394152008A400210876
:1008B600A5002208A6002308A70002300310A40DF5
:1008C600A50DA60DA70DFF3E031D612C2708F300FD
:1008D6002608F2002508F1002408F0000130F70090
:1008E6003130F6002D30F5000030F4000A128A117E
:1008F6009B250A128A117008FF3E83160313930084
:1009060083120313941608007708780403198C2CB5
:100916008D2CBA2C0130FB00992C01300310F70DF9
:10092600F80DFF3E031D912C0130FB07F81F9C2C90
:100936009D2C902C78087A02031DA32C7708790247
:10094600031CA62CA72CAD2C7708F9027808031CEB
:10095600FA03FA0201300310F80CF70CFF3E031DF0
:10096600AE2C0130FB02031DB92CBA2C9D2C7A0843
:10097600F8007908F7000800F401F5017008710421
:100986000319C62CC72CFC2C0130F600D32C0130E1
:100996000310F00DF10DFF3E031DCB2C0130F607C1
:1009A600F11FD62CD72CCA2C01300310F40DF50DEF
:1009B600FF3E031DD82C71087302031DE42C70083A
:1009C6007202031CE72CE82CEF2C7008F202710867
:1009D600031CF303F302741401300310F10CF00C42
:1009E600FF3E031DF02C0130F602031DFB2CFC2CF0
:1009F600D72C7508F1007408F00008008312031361
:100A0600A4000A128A115A230A128A11A0300A1265
:100A16008A1175230A128A118312031324080A12F3
:100A26008A1175230A128A117C080A128A11752303
:100A36000A128A110A128A1163230A128A110030D5
:100A460083120313A3000030A200C330A10050306C
:100A5600A000FF3083120313A007FF30031CA10779
:100A6600FF30031CA207FF30031CA307200A031D47
:100A7600462D210A031D462D220A031D462D230A53
:100A8600031D462D472D2C2D0800F9017908700706
:100A9600F100710884008313000883120313880091
:100AA6000430F100790A592D0310F10DFF3E031DA4
:100AB600572D05080339710485000030F800003011
:100AC600F7000130F6009030F5000130F1000030FB
:100AD600F2000030F3000030F4007108F5027208ED
:100AE600031C720F772D782DF6027308031C730F03
:100AF6007D2D7E2DF7027408031C740F832D842D23
:100B0600F802750A031D912D760A031D912D770AA9
:100B1600031D912D780A031D912D922D682D01300C
:100B2600F90704307902031C992D9A2D492D0800E6
:100B36000030FC000030FB000030FA000030F90005
:100B460073087204710470040319AA2DAB2DF62DD7
:100B56000130FD00B92D0130F8000310F00DF10D44
:100B6600F20DF30DF80BB02D0130FD07F31FBC2D70
:100B7600BD2DAE2D0130F8000310F90DFA0DFB0D59
:100B8600FC0DF80BBF2D73087702031DD42D7208D8
:100B96007602031DD42D71087502031DD42D70082D
:100BA6007402031CD72DD82DE72D7008F4027108A6
:100BB600031C710FF5027208031C720FF60273080C
:100BC600031C730FF702791401300310F30CF20CB7
:100BD600F10CF00CFF3E031DE82D0130FD02031D54
:100BE600F52DF62DBD2D7C08F3007B08F2007A0862
:100BF600F1007908F0000800E830F0000330F10059
:100C0600831203132608F3002508F2000A128A113C
:100C1600BF240A128A117008FC0001300A128A11D8
:100C260001250A128A110A30F7000030F8006430F4
:100C3600F0000030F100831203132608F3002508A4
:100C4600F2000A128A11BF240A128A117108FA00E8
:100C56007008F9000A128A1187240A128A11770885
:100C6600FC0002300A128A1101250A128A110A3082
:100C7600F7000030F8000A30F0000030F10083126F
:100C860003132608F3002508F2000A128A11BF246E
:100C96000A128A117108FA007008F9000A128A11FC
:100CA60087240A128A117708FC0003300A128A1177
:100CB60001250A128A110A30F7000030F800831263
:100CC60003132608FA002508F9000A128A11872458
:100CD6000A128A117708FC0004300A128A110125CB
:100CE6000A128A11FC01FC0A00300A128A11012537
:100CF6000A128A11080083120313B401B5010A12FD
:100D06008A11CA230A128A1100300A128A112A2469
:100D16000A128A11013A031D912E922E012F0130DB
:100D26000A128A112A240A128A1183120313A800AE
:100D3600A9012808F4002908F500E830F600033078
:100D4600F7000A128A1105240A128A1174088312FE
:100D56000313AA007508AB0002300A128A112A246E
:100D66000A128A1183120313AC00AD012C08F40099
:100D76002D08F5006430F6000030F7000A128A11DB
:100D860005240A128A117408831203132A07AE0077
:100D960075080318750A2B07AF0003300A128A116B
:100DA6002A240A128A1183120313B000B1013008F3
:100DB600F4003108F5000A30F6000030F7000A1298
:100DC6008A1105240A128A117408831203132E0746
:100DD600B20075080318750A2F07B30004300A120B
:100DE6008A112A240A128A11831203133207C500B4
:100DF6000030031801303307C600052F8312031392
:100E0600C501C6014608F1004508F0000A128A111C
:100E160053230A128A110A128A11A7230A128A1167
:100E260083120313B6003603031D1A2F1B2F212F1F
:100E36000130C7070318C80A0030C8073603031D68
:100E4600252F262F352F003048026530031947021B
:100E5600031C2E2F2F2F352FC501C6010130B400DC
:100E66000030B5003608031D392F3A2F442F3403BE
:100E76003504031D3F2F402F442FC701C801B4017D
:100E8600B5013608031D482F492F602F470848042F
:100E960003194E2F4F2F602F00304802643003197C
:100EA60047020318572F582F602F0130C507031824
:100EB600C60A0030C607C701C80102303606031D40
:100EC600652F662F6F2F4608A6004508A5000A1253
:100ED6008A11FF250A128A11E830F0000330F1006A
:100EE600831203134608F3004508F2000A128A111A
:100EF600BF240A128A117008373E84008313000843
:100F060083120313C1000A30F7000030F800643082
:100F1600F0000030F1004608F3004508F2000A121E
:100F26008A11BF240A128A117108FA007008F900A2
:100F36000A128A1187240A128A117708373E84001A
:100F46008313000883120313C2000A30F70000302F
:100F5600F8000A30F0000030F1004608F3004508BA
:100F6600F2000A128A11BF240A128A117108FA00C5
:100F76007008F9000A128A1187240A128A11770862
:100F8600373E84008313000883120313C3000A301C
:100F9600F7000030F8004608FA004508F9000A1282
:100FA6008A1187240A128A117708373E8400831330
:100FB600000883120313C4004130F0000A128A119C
:100FC60048250A128A110E2F0A128A110028831345
:100FD6004530FD000330FE009930FF0037308400B5
:100FE6000A128A11BB230A128A11C501C601C7015A
:0A0FF600C80183010A128A117E2E41
:02400E00FB3F76
:00000001FF
