:020000040000FA
:060000000A128A110E280D
:10000800FE00030EF0000A08F1007F08F2000A1251
:100018008A1124280A128A111128F801F901831279
:100028000313A001A101A201A301A401A501A60136
:10003800A701A801A901AA0183010A128A11D328DC
:100048008B1C272828282D28013083120313AA0087
:100058008B100B1D302831287228831203130108D6
:10006800083E81000130A407003003180130A507BD
:10007800003003180130A607003003180130A70725
:10008800213024064E300319250626042704031DB3
:100098004E284F287228003083120313A70000301F
:1000A800A6000030A5000030A4002908803AFF000F
:1000B80080307F02031D6228053028020318652856
:1000C80066286A288030831203138606013083125B
:1000D8000313A8070318A90A0030A9070B1172080F
:1000E800FF0071088A00700E8300FE0E7E0E090064
:1000F80083120313AF012F087307F40074088400F8
:100108008313000888000430F4002F0A8D28031098
:10011800F40DFF3E031D8B28050803397404850080
:100128000030AE000030AD000130AC009030AB00C4
:100138000130F4000030F5000030F6000030F70020
:10014800740883120313AB027508031C750FAD28DE
:10015800AE28AC027608031C760FB328B428AD028B
:100168007708031C770FB928BA28AE022B0A031D9B
:10017800C7282C0A031DC7282D0A031DC7282E0AC5
:10018800031DC728C8289C28013083120313AF0712
:1001980004302F02031CD128D2287F2808000A1215
:1001A8008A1117210A128A1183120313B401B501A7
:1001B80034083504031DE128E22807290630B00079
:1001C8005B30B1004F30B2006630B3003030F3001E
:1001D8000A128A117C200A128A110530831203132D
:1001E80028062904031DF928FA280729A801A901C6
:1001F8000130B4000030B500F3010A128A117C20E6
:100208000A128A116300831203132A0803190D299D
:100218000E29DC28AA01A801A901B401B501DC282E
:100228000A128A110E2883120313860183160313F8
:1002380086018312031386130A128A113E210A12B9
:100248008A110A128A1148210A128A110A128A117D
:1002580032210A128A118B170B1708008316031311
:1002680088010508C339850083120313050803397B
:100278008500080083160313811281150630831246
:10028800031381008B1608008316031301130B1642
:0202980008005C
:02400E00FB3F76
:00000001FF
