:020000040000FA
:060000000A128A11FC2F18
:100F580083160313880108000A128A11AC270A12A3
:100F68008A1102308312031388004D30F2001930C1
:100F7800F1004F30F000F00BBF2FF10BBF2FF20B39
:100F8800BF2FC62F80308312031388004D30F20024
:100F98001930F1004F30F000F00BD02FF10BD02FAB
:100FA800F20BD02FD72F82308312031388004D30D5
:100FB800F2001930F1004F30F000F00BE12FF10B87
:100FC800E12FF20BE12FE82F8312031388014D3034
:100FD800F2001930F1004F30F000F00BF12FF10B57
:100FE800F12FF20BF12FF82FB52F0A128A110028D2
:080FF80083010A128A11B02FD7
:02400E00FB3F76
:00000001FF
