:020000040000FA
:060000000A128A110C280F
:10000800FE00030EF8000A08F9000A128A111928DE
:100018000A128A110F28F001F101F201F301F4012B
:10002800F50183010A128A11B6280B1D1C281D2808
:100038003628831203130108083E81000130F407B3
:100048000318F50A0030F507213074064E300319FD
:100058007506031D302831283528F401F5010130D3
:1000680088060B11831203130C1C3B283C285A28C2
:100078000E08DE3EF6000F080318013E0B3EF7009F
:1000880076088E0077088F000130F2070318F30A0C
:100098000030F307513072067304031D54285528A5
:1000A8005928F201F301023088060C108C1C5D28D7
:1000B8005E2872280130F0070318F10A0030F107B2
:1000C800213070064E3003197106031D6C286D2807
:1000D8007128F001F101043088068C1079088A0033
:1000E800780E8300FE0E7E0E09000B178312031391
:1000F80088018316031388010A128A11AB200A1299
:100108008A110A128A119F200A128A110A128A1168
:1001180091200A128A118B170800831203131215F3
:10012800F930831603139200831203138C1083167D
:1001380003138C1408008312031310140B308F0060
:10014800DC308E000C10831603130C140800831681
:1001580003138112811506308312031381000B11DA
:100168008B1608000A128A1179200A128A11BB28F4
:060178000A128A110C2896
:02400E00FB3F76
:00000001FF
