:020000040000FA
:100000000A128A11EE2FFF1B0D2883137F18831706
:100010000008840A0319FF0A080000308A00040857
:10002000840A820700345234693467346834743483
:1000300020345334633472346F346C346C34693428
:060040006E346734003449
:100D2C00831603138801091189100A128A118B2763
:100D3C000A128A1108005F345F3447344F344F3441
:100D4C00443420344D344F3452344E3449344E34C0
:100D5C0047345F345F3400347E088A007F08820099
:100D6C000A128A11B2260A128A118000840A040817
:100D7C007D0603190034FF0A0319FE0AB62EF00192
:100D8C0076080A128A11F4260A128A11E32EF0014F
:100D9C00F00A7508FF00740884000A128A110320F7
:100DAC000A128A110A128A11F4260A128A110130C7
:100DBC00F4070318F50A0030F507750883120313BE
:100DCC00FF00740884000A128A1103200A128A1187
:100DDC00003A031DF22EF32ECD2E0800F3007018EE
:100DEC00F82EFC2E831203130915FF2E8312031306
:100DFC0009117308F03988008914A630F100F10B41
:100E0C00052F000083120313891073080F39F100AA
:100E1C0003300310F10DFF3E031D0F2F0310710D56
:100E2C0088008914A630F100F10B1A2F00008312F0
:100E3C00031389101B30F2009E30F100F10B242FAC
:100E4C00F20B242F000008000A128A1196260A12AF
:100E5C008A11343084002030F7001130F8008313ED
:100E6C000008F900040AFA00770884007908800069
:100E7C00040AF7007A088400F80B352F0130F400CF
:100E8C008030F5008030F6000A128A11C5260A124D
:100E9C008A11831203132F08B1000F30B2000030F7
:100EAC00B300831203133208FF3E203E84008313E9
:100EBC000008FF003208203E84007F088000FF30CD
:100ECC00B2070318B30AFF30B3073308803AFF00A8
:100EDC0080307F02031D742F013032020318772FEC
:100EEC00782F572F831203133108A0002030F40001
:100EFC000030F500C030F6000A128A11C5260A121D
:100F0C008A114F2F0A128A110028C330F500CD30F8
:100F1C00F400F40B8F2FF50B8F2FF00133300A12E6
:100F2C008A11F4260A128A111B30F5009E30F40047
:100F3C00F40B9E2FF50B9E2F0000F00133300A129C
:100F4C008A11F4260A128A11A630F400F40BAC2F85
:100F5C000000F00133300A128A11F4260A128A11A9
:100F6C00B72FB82F0000F00102300A128A11F426B4
:100F7C000A128A11A630F400F40BC22F0000F00103
:100F8C0028300A128A11F4260A128A11A630F400AB
:100F9C00F40BCE2F0000F00101300A128A11F42656
:100FAC000A128A110430F5003D30F400F40BDC2FEA
:100FBC00F50BDC2FE12FF0010C300A128A11F4260C
:100FCC000A128A11A630F400F40BEA2F0000080074
:100FDC0083134530FD000630FE00A130FF00343095
:100FEC0084000A128A11B6260A128A1183010A1287
:040FFC008A112A2FFD
:02400E00FB3F76
:00000001FF
