:020000040000FA
:060000000A128A11E42F30
:100BAE0001348316031306083F38860008008312AB
:100BBE0003130618E32DE42DE62D0130E72D00304A
:100BCE0008000A128A11F3250A128A110A128A11D2
:100BDE00D8250A128A110800831603138801050806
:100BEE00C3398500831203130508033985000800F5
:100BFE003F3406345B344F3466346D347D34073401
:100C0E007F346F343F343F343F343F347E088A00A4
:100C1E007F0882000A128A110D260A128A1180009C
:100C2E00840A04087D0603190034FF0A0319FE0A1C
:100C3E00112E770878040319252E262E532E0130F7
:100C4E00FB00322E01300310F70DF80DFF3E031D91
:100C5E002A2E0130FB07F81F352E362E292E780846
:100C6E007A02031D3C2E77087902031C3F2E402E7C
:100C7E00462E7708F9027808031CFA03FA020130AF
:100C8E000310F80CF70CFF3E031D472E0130FB023C
:100C9E00031D522E532E362E7A08F8007908F700CF
:100CAE000800F401F5017008710403195F2E602E1F
:100CBE00952E0130F6006C2E01300310F00DF10D63
:100CCE00FF3E031D642E0130F607F11F6F2E702EAE
:100CDE00632E01300310F40DF50DFF3E031D712E32
:100CEE0071087302031D7D2E70087202031C802E84
:100CFE00812E882E7008F2027108031CF303F30292
:100D0E00741401300310F10CF00CFF3E031D892EFC
:100D1E000130F602031D942E952E702E7508F100EB
:100D2E007408F0000800F90179087007F1007108E5
:100D3E008400831300088312031388000430F1002B
:100D4E00790AAB2E0310F10DFF3E031DA92E0508E7
:100D5E000339710485000030F8000030F7000130CF
:100D6E00F6009030F5000130F1000030F200003056
:100D7E00F3000030F4007108F5027208031C720FC4
:100D8E00C92ECA2EF6027308031C730FCF2ED02E57
:100D9E00F7027408031C740FD52ED62EF802750AAE
:100DAE00031DE32E760A031DE32E770A031DE32EA1
:100DBE00780A031DE32EE42EBA2E0130F907043013
:100DCE007902031CEB2EEC2E9B2E080083120313CC
:100DDE002D08B1002C08B0002B08AF002A08AE0079
:100DEE000A128A11E8250A128A112E30F0000A1210
:100DFE008A119A260A128A110A128A11DE250A12FD
:100E0E008A1183120313B3003303031D0F2F102F08
:100E1E00162F0130B4070318B50A0030B507330397
:100E2E00031D1A2F1B2F282F003035026530031992
:100E3E003402031C232F242F282FB601B7010130B3
:100E4E00B2003308031D2C2F2D2F352F3203031D17
:100E5E00312F322F352FB401B501B2013308031DE6
:100E6E00392F3A2F512F3408350403193F2F402FB5
:100E7E00512F003035026430031934020318482F05
:100E8E00492F512F0130B6070318B70A0030B707A4
:100E9E00B401B5010A30F7000030F8003708FA0047
:100EAE003608F9000A128A1120260A128A117708CA
:100EBE00203E84008313000883120313B1000A300E
:100ECE00F7000030F8000A30F0000030F10037086B
:100EDE00F3003608F2000A128A1158260A128A11F5
:100EEE007108FA007008F9000A128A1120260A12F7
:100EFE008A117708203E840083130008831203139F
:100F0E00B0000A30F7000030F8006430F000003016
:100F1E00F1003708F3003608F2000A128A1158263B
:100F2E000A128A117108FA007008F9000A128A1161
:100F3E0020260A128A117708203E840083130008A7
:100F4E0083120313AF000A30F7000030F800E830C8
:100F5E00F0000330F1003708F3003608F2000A12F1
:100F6E008A1158260A128A117108FA007008F900BF
:100F7E000A128A1120260A128A117708203E84004E
:100F8E008313000883120313AE002E30F0000A12F2
:100F9E008A119A260A128A110F308312031336060B
:100FAE00273003193706031DDD2FDE2F032FB60161
:100FBE00B701032F0A128A11002883132E30FD0069
:100FCE000530FE00FF30FF00203084000A128A1127
:100FDE0011260A128A110A128A11D7250A128A11AB
:100FEE00FC00B401B501B601B70183010A128A11E2
:020FFE00ED2ED6
:02400E00FB3F76
:00000001FF
