:020000040000FA
:060000000A128A11EC2F28
:1008D4008316031306083F38860008000A128A119B
:1008E4006A240A128A110A128A117B240A128A11B2
:1008F40008008316031388010508C3398500831291
:10090400031305080339850008003F3406345B34BB
:100914004F3466346D347D3407347F346F343F3460
:100924003F343F343F3401347E088A007F0882001C
:100934000A128A1196240A128A118000840A040871
:100944007D0603190034FF0A0319FE0A9A2CF000ED
:100954006400831603178C18B02CB12CAA2C7008D1
:10096400831203178D003F30831603178C050C1474
:10097400831203170C080800F501F601711CC32C3F
:10098400C42CCA2C7308F5070318F60A7408F60772
:1009940001300310F30DF40DFF3E031DCB2C013089
:1009A4000310F20CF10CFF3E031DD22C71087204EB
:1009B400031DDD2CDE2CC02C7608F2007508F10036
:1009C4000800F1007108031DE82CE92CEE2C8312B9
:1009D400031306083F390C2D3F3083120313060519
:1009E400F0003F3070060319F82CF92C002D4D0847
:1009F4000319FD2CFE2C002DCD01E92C3F300605FA
:100A0400F0003F307006031D082D092D0B2D013019
:100A1400CD003F300800FD00831603178C18132DFA
:100A2400142D0E2D7D08831203178D007C088C0075
:100A34003F30831603178C058312031303108B1F97
:100A4400242D252D262D03148B13831603170C1523
:100A540055308D00AA308D008C140C1183120313B1
:100A6400031C352D362D372D8B1708007708780495
:100A740003193D2D3E2D6B2D0130FB004A2D013015
:100A84000310F70DF80DFF3E031D422D0130FB0747
:100A9400F81F4D2D4E2D412D78087A02031D542D3B
:100AA40077087902031C572D582D5E2D7708F9021B
:100AB4007808031CFA03FA0201300310F80CF70C4F
:100AC400FF3E031D5F2D0130FB02031D6A2D6B2DBC
:100AD4004E2D7A08F8007908F7000800F401F501B2
:100AE400700871040319772D782DAD2D0130F600AF
:100AF400842D01300310F00DF10DFF3E031D7C2DFC
:100B04000130F607F11F872D882D7B2D013003104E
:100B1400F40DF50DFF3E031D892D71087302031DAD
:100B2400952D70087202031C982D992DA02D700824
:100B3400F2027108031CF303F3027414013003106E
:100B4400F10CF00CFF3E031DA12D0130F602031D34
:100B5400AC2DAD2D882D7508F1007408F000080047
:100B6400F90179087007F100710884008313000803
:100B74008312031388000430F100790AC32D031093
:100B8400F10DFF3E031DC12D0508033971048500D5
:100B94000030F8000030F7000130F6009030F50026
:100BA4000130F1000030F2000030F3000030F400B6
:100BB4007108F5027208031C720FE12DE22DF60292
:100BC4007308031C730FE72DE82DF7027408031C48
:100BD400740FED2DEE2DF802750A031DFB2D760A18
:100BE400031DFB2D770A031DFB2D780A031DFB2D26
:100BF400FC2DD22D0130F90704307902031C032E99
:100C0400042EB32D0800E830F0000330F100831205
:100C140003132108F3002008F2000A128A11702538
:100C24000A128A117008FC0001300A128A110D257B
:100C34000A128A110A30F7000030F8006430F0001C
:100C44000030F100831203132108F3002008F2009E
:100C54000A128A1170250A128A117108FA007008A2
:100C6400F9000A128A1138250A128A117708FC0041
:100C740002300A128A110D250A128A110A30F7006D
:100C84000030F8000A30F0000030F1008312031342
:100C94002108F3002008F2000A128A1170250A12B2
:100CA4008A117108FA007008F9000A128A113825AD
:100CB4000A128A117708FC0003300A128A110D25E2
:100CC4000A128A110A30F7000030F8008312031365
:100CD4002108FA002008F9000A128A1138250A129C
:100CE4008A117708FC0004300A128A110D250A12B1
:100CF4008A11FC01FC0A00300A128A110D250A121D
:100D04008A110800643083120313BC000030BD0054
:100D140000300A128A11A9240A128A11013A031D09
:100D2400942E952E042F01300A128A11A9240A1236
:100D34008A1183120313A200A3012208F1002308DD
:100D4400F200E830F3000330F4000A128A11BE24E2
:100D54000A128A11710883120313A4007208A500F1
:100D640002300A128A11A9240A128A118312031367
:100D7400A600A7012608F1002708F2006430F3005A
:100D84000030F4000A128A11BE240A128A11710872
:100D9400831203132407A80072080318720A250794
:100DA400A90003300A128A11A9240A128A11831293
:100DB4000313AA00AB012A08F1002B08F2000A3041
:100DC400F3000030F4000A128A11BE240A128A11B8
:100DD4007108831203132807AC0072080318720AFF
:100DE4002907AD0004300A128A11A9240A128A11B3
:100DF400831203132C07CE000030031801302D0793
:100E0400CF00082F83120313CE01CF014C08BB007F
:100E14004B08BA004A08B9004908B8003F308400BA
:100E24002E30A2000A30A30083130008A400040A91
:100E3400A5002208840024088000040AA2002508D2
:100E44008400A30B162F0A128A1170240A128A1125
:100E5400013083120313BC020030031CBD03BD0226
:100E64003C0A031D392F3D0A031D392F3A2F592FF0
:100E74006430BC000030BD0027304F020F3003192E
:100E84004E020318462F472F4E2F0130CE0703186A
:100E9400CF0A0030CF07592F0F304E0627300319E1
:100EA4004F06031D562F572F592FCE01CF01013066
:100EB4000A128A11E3240A128A1183120313BE0050
:100EC4003D303E06031D672F682F712F4F08A10088
:100ED4004E08A0000A128A1105260A128A11E83067
:100EE400F0000330F100831203134F08F3004E089F
:100EF400F2000A128A1170250A128A1170082E3E15
:100F040084008313000883120313B8000A30F70027
:100F14000030F8006430F0000030F1004F08F300B6
:100F24004E08F2000A128A1170250A128A117108F9
:100F3400FA007008F9000A128A1138250A128A1177
:100F440077082E3E84008313000883120313B9002C
:100F54000A30F7000030F8000A30F0000030F100E9
:100F64004F08F3004E08F2000A128A1170250A1283
:100F74008A117108FA007008F9000A128A113825DA
:100F84000A128A1177082E3E840083130008831204
:100F94000313BA000A30F7000030F8004F08FA00D3
:100FA4004E08F9000A128A1138250A128A117708A4
:100FB4002E3E84008313000883120313BB003830D1
:100FC400F0000A128A11B2250A128A112A2F0A1273
:100FD4008A11002883134E30FD000430FE00873050
:100FE400FF003F3084000A128A119A240A128A11DF
:0C0FF400CE01CF0183010A128A11842E65
:02400E00FB3F76
:00000001FF
