:020000040000FA
:060000000A128A11EE2F26
:100B9E00831203138C1ED42DD52DCF2D8C121A0833
:100BAE000800831603138801091189100A128A118D
:100BBE00A5260A128A110800F0007008831203138A
:100BCE0099000C1EEB2DEC2DE82D0C120800F500F3
:100BDE00F00174080A128A1155260A128A11F001C0
:100BEE00F00A75080A128A1155260A128A1108008F
:100BFE002034203420342034203420342034203447
:100C0E002034203420342034203420342034203436
:100C1E0000347E088A007F0882000A128A1110268C
:100C2E000A128A118000840A04087D060319003412
:100C3E00FF0A0319FE0A142E003083120313A300B9
:100C4E000030A2002530A1008030A0000A128A11C7
:100C5E0075260A128A110A128A11D8250A128A11C9
:100C6E000800F00175080A128A1155260A128A1117
:100C7E004C2EF001F00A7408840000080A128A1142
:100C8E0055260A128A110130F40774088400831362
:100C9E000008031D532E542E402E0800F30070182A
:100CAE00592E5D2E831203130915602E8312031322
:100CBE000911730888008914A630F100F10B652E16
:100CCE0000008312031389101B30F2009E30F100D6
:100CDE00F10B6F2EF20B6F2E000008008312031320
:100CEE00981718162008A4002108A5002208A600AF
:100CFE002308A70004300310A40DA50DA60DA70D03
:100D0E00FF3E031D822E2708F3002608F200250859
:100D1E00F1002408F0000130F7003130F6002D30DC
:100D2E00F5000030F4000A128A11FC260A128A110C
:100D3E007008FF3E8316031399000800C330F500B8
:100D4E00CD30F400F40BA92EF50BA92EF0013330A3
:100D5E000A128A1155260A128A111B30F5009E308E
:100D6E00F400F40BB82EF50BB82E0000F001333062
:100D7E000A128A1155260A128A11A630F400F40BB3
:100D8E00C62E0000F00133300A128A1155260A12BF
:100D9E008A11D12ED22E0000F00138300A128A119B
:100DAE0055260A128A11A630F400F40BDC2E000030
:100DBE00F00101300A128A1155260A128A110430E6
:100DCE00F5003D30F400F40BEA2EF50BEA2EEF2E73
:100DDE00F0010C300A128A1155260A128A11A63019
:100DEE00F400F40BF82E000008000030FC00003078
:100DFE00FB000030FA000030F90073087204710431
:100E0E00700403190B2F0C2F572F0130FD001A2FD2
:100E1E000130F8000310F00DF10DF20DF30DF80B8B
:100E2E00112F0130FD07F31F1D2F1E2F0F2F013025
:100E3E00F8000310F90DFA0DFB0DFC0DF80B202F29
:100E4E0073087702031D352F72087602031D352FA6
:100E5E0071087502031D352F70087402031C382F9C
:100E6E00392F482F7008F4027108031C710FF50218
:100E7E007208031C720FF6027308031C730FF7023D
:100E8E00791401300310F30CF20CF10CF00CFF3E50
:100E9E00031D492F0130FD02031D562F572F1E2F04
:100EAE007C08F3007B08F2007A08F1007908F00064
:100EBE0008000A128A1123260A128A11013083129F
:100ECE000313CE00D001513084002C30A800113015
:100EDE00A90083130008AA00040AAB0028088400A6
:100EEE002A088000040AA8002B088400A90B702F82
:100EFE000A128A11CF250A128A1183120313CF0008
:100F0E004F080A128A11E3250A128A111030831231
:100F1E00031350020318942F952FB12F4E03031D68
:100F2E00992F9A2FB12F5008803EF4004F080A12C5
:100F3E008A11EE250A128A11013083120313D0078B
:100F4E0010305006031DAC2FAD2F7F2FD001023075
:100F5E00CE007F2F103050020318B62FB72F7F2FE1
:100F6E0002304E06031DBC2FBD2F7F2F50083D3E75
:100F7E0084004F08831380005008C03EF4004F08D1
:100F8E000A128A11EE250A128A11013083120313F6
:100F9E00D00710305006031DD52FD62FEA2FD001C3
:100FAE003D30F4008030F5000A128A1138260A12FC
:100FBE008A112C30F400C030F5000A128A1138263E
:100FCE000A128A117F2F7F2F0A128A11002883138B
:100FDE006230FD000530FE00FF30FF00513084000E
:100FEE000A128A1114260A128A1183010A128A1110
:020FFE00602F62
:02400E00FB3F76
:00000001FF
