:020000040000FA
:060000000A128A110C280F
:10000800FE00030EF5000A08F6000A128A113D28C0
:100018000A128A110F280A128A115E210A128A11FD
:10002800F0000A128A115F210A128A11F1000A12DD
:100038008A1160210A128A11F2000A128A116121BA
:100048000A128A11F3000A128A1162210A128A110D
:10005800F400A001A101A201A301A401A501A60128
:10006800A701A801A901FA01FB0183010A128A115B
:10007800DD280A128A118D200A128A1183120313AD
:100088008C1C4728482886281108083E9100013012
:10009800A8070318A90A0030A907213028064E30FE
:1000A80003192906031D59285A2885280130A40751
:1000B800003003180130A507003003180130A607E7
:1000C800003003180130A707F5302406031D7228F5
:1000D800250326042704031D72287328812800306D
:1000E80083120313A7000030A6000030A5000030DB
:1000F800A4000130FA000030FB0083120313A801AA
:10010800A9018C1076088A00750E8300FE0E7E0EFB
:100118000900720883120313AA007308AB00AC012C
:10012800AD012308B1002208B0002108AF00200863
:10013800AE000130A0070030A1070318A20AA207E9
:100148000318A30AA3072D083102031DB5282C089C
:100158003002031DB5282B082F02031DB5282A08D5
:100168002E020318B828B928BB280814BC28081080
:100178007008AA007108AB00AC01AD012D0823027C
:10018800031DD0282C082202031DD0282B08210289
:10019800031DD0282A082002031CD328D428DC28D1
:1001A8000030A3000030A2000030A1000030A00001
:1001B80008000A128A1134210A128A1101300A121F
:1001C8008A110A210A128A11F9007A037B04031999
:1001D800EE28EF28F5283E307906031DF428F52887
:1001E800E2283E307906031DFA28FB280029710809
:1001F800F3007008F20004290A30F2000030F3001E
:10020800FA01FB01E2280A128A110C28F800780882
:10021800031D0F29102915298312031306083F39D6
:1002280033293F30831203130605F7003F30770662
:1002380003191F2920292729740803192429252986
:100248002729F40110293F300605F7003F307706CB
:10025800031D2F29302932290130F4003F300800CE
:100268008312031388018316031388010A128A1163
:1002780058210A128A110A128A114A210A128A116D
:10028800831203138C108B170B170800FA30831690
:1002980003139200831203131215831603138C148D
:1002A800831203138C1008008316031306083F38C3
:0E02B80086000800643400343234003401340F
:00000001FF
