:020000040000FA
:060000000A128A11ED2F27
:100A7C008316031306083F38860008000A128A11F1
:100A8C003E250A128A110A128A114F250A128A115E
:100A9C0008008316031388010508C33985008312E7
:100AAC00031305080339850008007E088A007F08B7
:100ABC0082000A128A115B250A128A118000840AAC
:100ACC0004087D0603190034FF0A0319FE0A5F2D82
:100ADC003F3406345B344F3466346D347D34073424
:100AEC007F346F34403440343F343F343F343F34F0
:100AFC000134013401340134831203130618872D99
:100B0C00882D952D4C03031D8C2D8D2D952D490372
:100B1C00031D912D922D952DCC010130C12D8618E0
:100B2C00982D992DA62D4B03031D9D2D9E2DA62D85
:100B3C004903031DA22DA32DA62DCB010230C12DDF
:100B4C000619A92DAA2DBA2D4A03031DAE2DAF2DC2
:100B5C00BA2DCA0149080319B42DB62D0130B72D91
:100B6C000030C9000330C12D0130CC000130CB0066
:100B7C000130CA0000300800F90179087007F10053
:100B8C007108840083130008831203138800043057
:100B9C00F100790AD32D0310F10DFF3E031DD12D69
:100BAC0005080339710485000030F8000030F700A7
:100BBC000130F6009030F5000130F1000030F20009
:100BCC000030F3000030F4007108F5027208031CC9
:100BDC00720FF12DF22DF6027308031C730FF72D13
:100BEC00F82DF7027408031C740FFD2DFE2DF8026E
:100BFC00750A031D0B2E760A031D0B2E770A031D97
:100C0C000B2E780A031D0B2E0C2EE22D0130F9074A
:100C1C0004307902031C132E142EC32D0800F50189
:100C2C00F31F192E1A2E212EF209F309F20A0319B9
:100C3C00F30A0130F500F11F242E252E2A2EF0097F
:100C4C00F109F00A0319F10A7008710403192F2E27
:100C5C00302E5D2E0130F4003C2E01300310F00DCF
:100C6C00F10DFF3E031D342E0130F407F11F3F2E12
:100C7C00402E332E71087302031D462E700872022B
:100C8C00031C492E4A2E502E7008F2027108031CC8
:100C9C00F303F30201300310F10CF00CFF3E031DC3
:100CAC00512E0130F402031D5C2E5D2E402E750872
:100CBC000319612E622E672EF209F309F20A031949
:100CCC00F30A7308F1007208F00008008312031392
:100CDC00B8010130B600B1010130AC000030AD00FC
:100CEC000130AF000030B0004808B5004708B40030
:100CFC004608B3004508B200393084002030FA00B1
:100D0C000C30FB0083130008FC00040AFD007A0879
:100D1C0084007C088000040AFA007D088400FB0B28
:100D2C00882E0A128A1144250A128A110130831264
:100D3C000313AC070318AD0A0030AD0765302C0661
:100D4C002D04031DAA2EAB2EE92E0A128A11822520
:100D5C000A128A1183120313B70037030319B72E33
:100D6C00B82EBE2E02303706031DBD2EBE2ED12E40
:100D7C00370836060319C32EC42ECF2E0230370681
:100D8C00031DC92ECA2ECD2E0130B807CF2E01302F
:100D9C00B8023708B60003303706031DD62ED72EFF
:100DAC00E52E0130B107311CDC2EDD2EE22E36088B
:100DBC00AE003708B600E52EB1012E08B6000130A2
:100DCC00AC000030AD000130AF070318B00A0030A2
:100DDC00B00765302F063004031DF52EF62EE22FDA
:100DEC003603031DFA2EFB2E692F0C303806031D1B
:100DFC00002F012F022FB8010C30F0000030F10051
:100E0C003808FA00FB017A08F2007B08F3000A129A
:100E1C008A1115260A128A117008203E8400831349
:100E2C00000883120313B2000C30F0000030F10004
:100E3C003808013EF200003003180130F3000A12AA
:100E4C008A1115260A128A117008203E8400831319
:100E5C00000883120313B3000C30F0000030F100D3
:100E6C003808023EF200003003180130F3000A1279
:100E7C008A1115260A128A117008203E84008313E9
:100E8C00000883120313B4000C30F0000030F100A2
:100E9C003808033EF200003003180130F3000A1248
:100EAC008A1115260A128A117008203E84008313B9
:100EBC00000883120313B5000130B8070130AF00EE
:100ECC000030B000E22F02303606031D6E2F6F2F5C
:100EDC00DB2F033038020318742F752F782F380846
:100EEC00103CB8000C30F0000030F1003808FA006B
:100EFC00FB017A08F2007B08F3000A128A1115260E
:100F0C000A128A117008203E840083130008831291
:100F1C000313B5000C30F0000030F1003808FF3E30
:100F2C00F200FF3003180030F3000A128A11152664
:100F3C000A128A117008203E840083130008831261
:100F4C000313B4000C30F0000030F1003808FE3E02
:100F5C00F200FF3003180030F3000A128A11152634
:100F6C000A128A117008203E840083130008831231
:100F7C000313B3000C30F0000030F1003808FD3ED4
:100F8C00F200FF3003180030F3000A128A11152604
:100F9C000A128A117008203E840083130008831201
:100FAC000313B2000130B802642F03303606031D60
:100FBC00E02FE12FE22F642F3230F0000A128A1159
:100FCC00C2250A128A119C2E0A128A110028831338
:100FDC004D30FD000530FE006E30FF0039308400CE
:100FEC000A128A115F250A128A11CD0183010A1295
:040FFC008A116C2EBC
:02400E00FB3F76
:00000001FF
