:020000040000FA
:060000000A128A110C280F
:10000800FE00030EF0000A08F1000A128A1168299E
:100018000A128A110F2883132C30FD000130FE00CC
:100028007630FF00203084000A128A114B210A1210
:100038008A110A128A1193210A128A11F900AC0155
:10004800AD01AE01AF0183010A128A112B280A12F1
:100058008A115A210A128A110A128A118D210A124A
:100068008A1100300A128A111D210A128A11F80019
:100078000130F4000030F5000030F6000030F700E1
:10008800740883120313A0027508031C750F4D280A
:100098004E28A1027608031C760F53285428A20282
:1000A8007708031C770F59285A28A302200A031D32
:1000B8006728210A031D6728220A031D6728230AC7
:1000C800031D67286828C628003083120313A3007D
:1000D8000030A2000030A100FA30A0003E307806BF
:1000E800031D772878289A282B08031D88282A08B2
:1000F800031D88282908031D882864302802031D49
:1001080085280318882889289A2801308312031320
:10011800A807003003180130A90700300318013080
:10012800AA07003003180130AB07C6283D3078060F
:10013800031D9F28A028C628831203132B082A040E
:10014800290428040319A928AA28C6280130F4007C
:100158000030F5000030F6000030F7007408A802FF
:100168007508031C750FB928BA28A9027608031C5C
:10017800760FBF28C028AA027708031C770FC52866
:10018800C628AB020A128A11CF200A128A11352812
:100198000A128A110C28831203132B082F02031D3D
:1001A800DF282A082E02031DDF2829082D02031D37
:1001B800DF2828082C020318E228E328E528081479
:1001C800F9282F08031DF5282E08031DF5282D08EA
:1001D800031DF52864302C02031DF2280318F528A6
:1001E800F628F92883120313081001308312031329
:1001F800AC07003003180130AD0700300318013098
:10020800AE07003003180130AF0765302C062D0407
:100218002E042F04031D112912291C2900308312D2
:100228000313AF000030AE000030AD000030AC006A
:100238000800F3007308031D2229232928298312A3
:10024800031306083F3946293F3083120313060576
:10025800F2003F3072060319322933293A29790806
:100268000319372938293A29F90123293F30060586
:10027800F2003F307206031D422943294529013007
:10028800F9003F3008007E088A007F0882000A12C1
:100298008A1147210A128A118000840A04087D06FF
:1002A80003190034FF0A0319FE0A4B2983120313AA
:1002B80088018316031388010A128A1182210A12FF
:1002C8008A118B170B170800831203138C1C6D29D6
:1002D8006E296F298C1071088A00700E8300FE0E3B
:1002E8007E0E0900FA3400340034003464340034DB
:1002F80000340034323400340034003483120313E1
:100308001215FA30831603139200831203138C100C
:1003180008008316031306083F38860008000134D6
:02400E00FB3F76
:00000001FF
