:020000040000FA
:100000000A128A11E52F00308A000408840A820748
:10001000003445346E3474346534723420346134C1
:1000200020346E3475346D34623465347234003487
:0A0030006D34733467343A34003441
:10067A00013430343034303430343034303430347F
:10068A003034303400348316031388010911891079
:10069A000A128A110E240A128A1108000A128A11F1
:1006AA005E230A128A110A128A1148230A128A112F
:1006BA000800831603130608073886000808F0396D
:1006CA0088008113831203138815081588140814E7
:1006DA000800F500F00174080A128A11A6230A120A
:1006EA008A11F001F00A75080A128A11A6230A1261
:1006FA008A1108007E088A007F0882000A128A117D
:10070A007F230A128A118000840A04087D060319CD
:10071A000034FF0A0319FE0A832B7008F200972B94
:10072A000130F0077008840083130008031D9E2B14
:10073A009F2B952B72087002F000F101F01BF10358
:10074A000800F3007018AA2BAE2B831203130915A5
:10075A00B12B831203130911730888008914A63078
:10076A00F100F10BB62B00008312031389101B3022
:10077A00F2009E30F100F10BC02BF20BC02B0000EF
:10078A000800F2000A128A111F250A128A11F300C0
:10079A007208031DD12BD22BD42B7308E82B730AB2
:1007AA000319D82BD92BE02B7C080319DD2BDE2B60
:1007BA00E02BFC01D22B730A031DE42BE52BE72B5C
:1007CA000130FC00FF300800F00175080A128A1196
:1007DA00A6230A128A11012CF001F00A7408840077
:1007EA000A128A1103200A128A110A128A11A623EE
:1007FA000A128A110130F407740884000A128A1155
:10080A0003200A128A11003A031D0C2C0D2CF12B1D
:10081A000800C330F500CD30F400F40B122CF50BB0
:10082A00122CF00133300A128A11A6230A128A11F5
:10083A001B30F5009E30F400F40B212CF50B212C13
:10084A000000F00133300A128A11A6230A128A1113
:10085A00A630F400F40B2F2C0000F00133300A12FA
:10086A008A11A6230A128A113A2C3B2C0000F001A5
:10087A0038300A128A11A6230A128A11A630F40005
:10088A00F40B452C0000F00101300A128A11A6234C
:10089A000A128A110430F5003D30F400F40B532C8F
:1008AA00F50B532C582CF0010C300A128A11A6238E
:1008BA000A128A11A630F400F40B612C0000080019
:1008CA00F501F31F692C6A2C712CF209F309F20A5B
:1008DA000319F30A0130F500F11F742C752C7A2CD8
:1008EA00F009F109F00A0319F10A700871040319F1
:1008FA007F2C802CAD2C0130F4008C2C013003109D
:10090A00F00DF10DFF3E031D842C0130F407F11F99
:10091A008F2C902C832C71087302031D962C70085F
:10092A007202031C992C9A2CA02C7008F2027108EE
:10093A00031CF303F30201300310F10CF00CFF3E29
:10094A00031DA12C0130F402031DAC2CAD2C902CFC
:10095A0075080319B12CB22CB72CF209F309F20A63
:10096A000319F30A7308F1007208F0000800F50190
:10097A00F11FC02CC12CC82CF009F109F00A031987
:10098A00F10A0130F500F31FCB2CCC2CD32CF20941
:10099A00F309F20A0319F30A0130F506F601F70121
:1009AA00700871040319DA2CDB2C102D0130F400C5
:1009BA00E72C01300310F00DF10DFF3E031DDF2C73
:1009CA000130F407F11FEA2CEB2CDE2C0130031066
:1009DA00F60DF70DFF3E031DEC2C71087302031D83
:1009EA00F82C70087202031CFB2CFC2C032D7008D7
:1009FA00F2027108031CF303F302761401300310A8
:100A0A00F10CF00CFF3E031D042D0130F402031D0E
:100A1A000F2D102DEB2C75080319142D152D1A2DD9
:100A2A00F609F709F60A0319F70A7708F1007608B2
:100A3A00F00008008312031388110815881408149B
:100A4A006430F0000030F100FF30F0070318F10ABB
:100A5A00FF30F107700A031D362D710A031D362D6A
:100A6A00372D292D8312031306183C2D3D2D3F2DBA
:100A7A000130CA2D8618422D432D452D0230CA2D2C
:100A8A000619482D492D4B2D0330CA2D88150811FA
:100A9A00881408146430F0000030F100FF30F007C9
:100AAA000318F10AFF30F107700A031D602D710A5D
:100ABA00031D602D612D532D831203130618662D15
:100ACA00672D692D0430CA2D86186C2D6D2D6F2D5A
:100ADA000530CA2D0619722D732D752D0630CA2DB3
:100AEA0088150815881008146430F0000030F100E9
:100AFA00FF30F0070318F10AFF30F107700A031DEF
:100B0A008A2D710A031D8A2D8B2D7D2D83120313C5
:100B1A000618902D912D932D0730CA2D8618962DE3
:100B2A00972D992D0830CA2D06199C2D9D2D9F2D84
:100B3A000930CA2D88150815881408106430F00089
:100B4A000030F100FF30F0070318F10AFF30F10717
:100B5A00700A031DB42D710A031DB42DB52DA72DDE
:100B6A00831203130618BA2DBB2DBD2D2A30CA2DA8
:100B7A008618C02DC12DC32D0030CA2D0619C62DC9
:100B8A00C72DC92D2330CA2DFF300800F91FCE2DDD
:100B9A00CF2DD12DF801F9017908803AFF00A7304D
:100BAA007F02031DDA2D10307802031CDD2DDE2DA5
:100BBA00E02DF801F9010A30F0000030F10079085F
:100BCA00F3007808F2000A128A1165240A128A11BF
:100BDA007008303E83120313B7000A30F000003069
:100BEA00F1007908F3007808F2000A128A11BC248D
:100BFA000A128A117108F9007008F8000A30F00028
:100C0A000030F1007908F3007808F2000A128A111C
:100C1A0065240A128A117008303E83120313B60043
:100C2A000A30F0000030F1007908F3007808F20089
:100C3A000A128A11BC240A128A117108F900700872
:100C4A00F8000A30F0000030F1007908F300780863
:100C5A00F2000A128A1165240A128A117008303EBB
:100C6A0083120313B5000A30F0000030F10079084E
:100C7A00F3007808F2000A128A11BC240A128A11B7
:100C8A007108F9007008F8000A30F0000030F1002D
:100C9A007908F3007808F2000A128A1165240A1208
:100CAA008A117008303E83120313B4000430FA002C
:100CBA000030FB007A08C03EF4007A08303E840017
:100CCA00831300080A128A116E230A128A1101304C
:100CDA00FA070318FB0A0030FB077B08803AFF007B
:100CEA0080307F02031D7B2E08307A02031C7E2E81
:100CFA007F2E5F2E08000A128A1153230A128A11C4
:100D0A000130F4008030F5000A128A11E9230A1230
:100D1A008A111030F400C030F5000A128A11E92352
:100D2A000A128A1183120313A301A4010130A50038
:100D3A000030A600A701A8013808BC0001300A1239
:100D4A008A11C6230A128A1183120313AF002308D9
:100D5A002404031DB12EB22E0A2F2F03031DB62E13
:100D6A00B72EDB2E3B08803AFF0080307F02031D3E
:100D7A00C02E09303A020318C32EC42ECD2E0130DC
:100D8A0083120313BA070318BB0A0030BB07D12E1C
:100D9A0083120313BA01BB013B08F9003A08F800B1
:100DAA000A128A11CB250A128A112C2F02302F0619
:100DBA00031DE02EE12EFE2E3B08803AFF00803014
:100DCA007F02031DEA2E01303A02031CED2EEE2E9D
:100DDA00F72EFF3083120313BA070318BB0AFF303A
:100DEA00BB07D12E093083120313BA000030BB00AF
:100DFA00D12E05302F06031D032F042F092F013092
:100E0A00A3000030A4002C2F2C2F06302F06031D20
:100E1A000F2F102F242F0A30F0000030F1003B086A
:100E2A00F3003A08F2000A128A11BC240A128A1143
:100E3A00710883120313BB007008BA00D12E053063
:100E4A002F06031D292F2A2F2C2FA301A4010330BB
:100E5A00831203132F06031D332F342FA12E303094
:100E6A00F0000A128A1192230A128A117108831257
:100E7A000313AA007008A900250826040319462F9F
:100E8A00472F902F29082F3E840083130008BC00A7
:100E9A00A501A6010130A7000030A8002908FF3EDD
:100EAA00AD002A080318013EFF3EAE002E08803A24
:100EBA00FF0080307F02031D642F01302D020318CA
:100ECA00672F682F692F8B2F831203132D082F3E4C
:100EDA00840083130008FF002D08303E84007F0839
:100EEA0080002D08C03EF4002D08303E8400000822
:100EFA000A128A116E230A128A11FF30831203130F
:100F0A00AD070318AE0AFF30AE075B2F8312031337
:100F1A003C08B000A12E270828040319952F962F04
:100F2A00E12F3008BC000130A5000030A600A7015F
:100F3A00A801AB01AC01C22F831203132B08313E67
:100F4A00840083130008FF002B08303E84007F08CA
:100F5A0080002B08C03EF4002B08303E84000008B5
:100F6A000A128A116E230A128A110130831203139C
:100F7A00AB070318AC0A0030AC072908FF3EA000F3
:100F8A002A080318013EFF3EA1002C08803AA2005D
:100F9A002108803A2202031DD42F20082B02031CA9
:100FAA00D72FD82FA12F8312031329082F3E84008D
:100FBA003C0883138000A12EA12E0A128A11002850
:100FCA0083133A30FD000330FE003E30FF0030301C
:100FDA0084000A128A1183230A128A110A128A11B8
:100FEA003D230A128A11FC00BA01BB01BC0183012C
:060FFA000A128A11802E8C
:02400E00FB3F76
:00000001FF
