:020000040000FA
:100000000A128A11FC2F00308A000408840A820731
:100010000034543445344D34503445345234413432
:10002000543455345234453400342E343034003492
:040030004334003421
:100B8200831603139F17831203131F14080083167F
:100B920003138801091189100A128A1111270A12F6
:100BA2008A110800FD00F0017C080A128A116126F0
:100BB2000A128A11F001F00A7D080A128A116126CE
:100BC2000A128A1108000A128A11C8250A128A1109
:100BD2000A128A11C1250A128A110130F4008330E7
:100BE200F5000A128A113C260A128A110800F50041
:100BF2007508F20003300310F20DFF3E031DFC2DB9
:100C0200831203131F08C73972049F001F151F198F
:100C12000B2E0C2E082E1E08F400831603131E083A
:100C2200F3007408F1007308F0000800F401F50104
:100C3200701C1C2E1D2E232E7208F4070318F50AB1
:100C42007308F50701300310F20DF30DFF3E031D8B
:100C5200242E01300310F10CF00CFF3E031D2B2E4D
:100C620070087104031D362E372E192E7508F100F7
:100C72007408F0000800F00175080A128A11612652
:100C82000A128A11542EF001F00A740884000A1222
:100C92008A1103200A128A110A128A1161260A1283
:100CA2008A110130F407740884000A128A110320A1
:100CB2000A128A11003A031D5F2E602E442E08008C
:100CC200F3007018652E692E8312031309156C2E1A
:100CD2008312031309117308F03988008914A630AE
:100CE200F100F10B722E00008312031389107308B6
:100CF2000F39F10003300310F10DFF3E031D7C2E6E
:100D02000310710D88008914A630F100F10B872EB3
:100D120000008312031389101B30F2009E30F10091
:100D2200F10B912EF20B912E000008007708780447
:100D320003199C2E9D2ECA2E0130FB00A92E0130D4
:100D42000310F70DF80DFF3E031DA12E0130FB0726
:100D5200F81FAC2EAD2EA02E78087A02031DB32EFA
:100D620077087902031CB62EB72EBD2E7708F9023A
:100D72007808031CFA03FA0201300310F80CF70C8E
:100D8200FF3E031DBE2E0130FB02031DC92ECA2EDB
:100D9200AD2E7A08F8007908F7000800F401F50191
:100DA200700871040319D62ED72E0C2F0130F600CD
:100DB200E32E01300310F00DF10DFF3E031DDB2E7B
:100DC2000130F607F11FE62EE72EDA2E013003106E
:100DD200F40DF50DFF3E031DE82E71087302031D8D
:100DE200F42E70087202031CF72EF82EFF2E7008E4
:100DF200F2027108031CF303F302741401300310AE
:100E0200F10CF00CFF3E031D002F0130F602031D12
:100E12000B2F0C2FE72E7508F1007408F000080064
:100E2200C330F500CD30F400F40B152FF50B152F60
:100E3200F00133300A128A1161260A128A111B301C
:100E4200F5009E30F400F40B242FF50B242F000044
:100E5200F00133300A128A1161260A128A11A63071
:100E6200F400F40B322F0000F00133300A128A1121
:100E720061260A128A113D2F3E2F0000F001023036
:100E82000A128A1161260A128A11A630F400F40BA2
:100E9200482F0000F00128300A128A1161260A1236
:100EA2008A11A630F400F40B542F0000F001013037
:100EB2000A128A1161260A128A110430F5003D30A5
:100EC200F400F40B622FF50B622F672FF0010C3048
:100ED2000A128A1161260A128A11A630F400F40B52
:100EE200702F000008000A128A11E4250A128A11E2
:100EF20000300A128A11F8250A128A117108831227
:100F02000313A3007008A2002308F1002208F000D6
:100F1200F430F2000130F3000A128A1117260A1285
:100F22008A11700883120313A0007108A1000A300D
:100F32000310A10CA00CFF3E031D992F2008A40052
:100F42002108A500C530FC000A30F7000030F80087
:100F52000A30F0000030F1002508F3002408F20006
:100F62000A128A11CF260A128A117108FA00700831
:100F7200F9000A128A1197260A128A117708303E5E
:100F82000A128A11D3250A128A11C630FC000A30CD
:100F9200F7000030F800831203132508FA00240832
:100FA200F9000A128A1197260A128A117708303E2E
:100FB2000A128A11D3250A128A110D30F400C730A1
:100FC200F5000A128A113C260A128A11C930FC0065
:100FD200DF300A128A11D3250A128A111030F40066
:100FE200CA30F5000A128A113C260A128A11792F98
:0E0FF2000A128A11002883010A128A11742F34
:02400E00FB3F76
:00000001FF
