:020000040000FA
:060000000A128A11FC2F18
:100ED80083160313860183120313860108000A127E
:100EE8008A116C270A128A11F101F201F301F40147
:100EF8000130F1070318F20A0030F2075130710689
:100F0800C33003197206031D8A2F8B2F7C2FF10122
:100F1800F201730874040319922F932FA22F003043
:100F2800740209300319730203189B2F9C2FA22FF8
:100F3800031483120313060D8600F22F0030740287
:100F4800093003197302031CAA2FAB2FBB2F0030E3
:100F580074021130031973020318B32FB42FBB2F77
:100F6800831203130608F00070078600F22F003082
:100F78007402113003197302031CC32FC42FD62F18
:100F8800003074021930031973020318CC2FCD2FC7
:100F9800D62F831203130608F0000310700C803854
:100FA8008600F22F00307402193003197302031CF3
:100FB800DE2FDF2FF02F0030740221300319730267
:100FC8000318E72FE82FF02F831203130608F00009
:100FD8000310700C8600F22FF301F4010130F307BF
:100FE8000318F40A0030F4077C2F0A128A1100282B
:080FF80083010A128A11732F14
:02400E00FB3F76
:00000001FF
