:020000040000FA
:060000000A128A110C280F
:10000800FE00030EF0000A08F1000A128A11F92B0B
:100018000A128A110F2883135C30FD000430FE0099
:100028006130FF00503084000A128A113F240A12FE
:100038008A11DC01DD01DE01DF01E001E101FA01E5
:10004800FB0183010A128A11A92A831203132D08BE
:10005800B7008030B7052D08AE002E07BE00AC1FD4
:100068003628372838283E143E0803193C283D28EE
:100078004D283E0A031D412842284A280030AD0079
:100088000030AC000030AB000030AA00AC17AD0166
:1000980055280030AD000030AC000030AB00003017
:1000A800AA0029088039B7062908AE002E07BF0024
:1000B800A81F5F28602861283F143F080319652896
:1000C800662876283F0A031D6A286B2873280030A3
:1000D800A9000030A8000030A7000030A600A8172B
:1000E800A9017E280030A9000030A8000030A70030
:1000F8000030A6002908280427042604031D8528A3
:1001080086289D280030AD000030AC000030AB00E0
:100118000030AA008030AC047F30AD043708AD044D
:100128002D08A9002C08A8002B08A7002A08A6005B
:10013800F2293E08031DA128A228AB280030A900F7
:100148000030A8000030A7000030A600F2293E08C1
:10015800AE00AF012F08B1003F082E02B000031C0B
:10016800B10330087F3EB80031080318013E003E55
:10017800B9002D08B6002C08B5002B08B4002A08D1
:10018800B3000030AD000030AC000030AB000030F0
:10019800AA000030BD000030BC000030BB000030B9
:1001A800BA00BF011F293F080319DB28DC28FC28F7
:1001B8000130AE000310B30DB40DB50DB60DAE0B86
:1001C800DE280130AE000310AA0DAB0DAC0DAD0D4D
:1001D800AE0BE728BD1FF128F228F3282A140130B6
:1001E800AE000310BA0DBB0DBC0DBD0DAE0BF5284E
:1001F80029083602031D0A2928083502031D0A2981
:1002080027083402031D0A2926083302031C0D2976
:100218000E291D293D172608B3022708031C270F9E
:10022800B4022808031C280FB5022908031C290F4B
:10023800B6020130BF071A303F02031C24292529C2
:10024800D728360835043404330403192C292D29FA
:100258004C293A144C290130AE000310AA0DAB0DFD
:10026800AC0DAD0DAE0B3129BD1F3B293C293D29F5
:100278002A140130AE000310BA0DBB0DBC0DBD0D24
:10028800AE0B3F29FF30B8070318B90AFF30B9078A
:10029800AC1F4F2950292F29BF01BD1F54295529AB
:1002A8007129FF303A05AE00FF303B05AF00FF3043
:1002B8003C05B0007F303D05B100310830042F0403
:1002C8002E040319682969296C290130BF00712996
:1002D8002A1C6F297029712969293F080319752972
:1002E8007629A7290130AA07003003180130AB0787
:1002F800003003180130AC07003003180130AD0797
:100308002D1C87298829A7292A08AE002B08AF00A9
:100318002C08B0002D08B1000130B200310DB10C2D
:10032800B00CAF0CAE0CB20B92293108AD003008FE
:10033800AC002F08AB002E08AA000130B80703183C
:10034800B90A0030B9073908803AFF0080307F02C7
:10035800031DB029FF303802031CB329B429C22970
:10036800FF3083120313B8000030B9000030AD002D
:100378000030AC000030AB000030AA008312031339
:100388003908803AFF0080307F02031DCD290130F3
:1003980038020318D029D129DE2983120313B801A2
:1003A800B9010030AD000030AC000030AB000030C7
:1003B800AA00B701831203133808BE003E1CE529C2
:1003C800E629E829AC17EA297F30AC053E08AE00DB
:1003D80003102E0CAD003708AD04942808008312D2
:1003E8000313A00020080319FA29FB290F2AF51F77
:1003F800FE29FF290F2A7209A2007309A3007409B4
:10040800A4007509A500A20A0319A30A0319A40ADE
:100418000319A50A172A7508A5007408A40073080B
:10042800A3007208A2007508740473047204031D03
:100438001E2A1F2A282A0030F5000030F400003058
:10044800F3000030F200A82A9630A100362A0130C5
:10045800A10701300310A50CA40CA30CA20CFF3EAD
:10046800031D2E2AFE302505031D3B2A3C2A2B2A74
:10047800562A0130A1070130A207003003180130C5
:10048800A307003003180130A40700300318013017
:10049800A50701300310A50CA40CA30CA20CFF3E69
:1004A800031D4E2AFF302505031D5B2A5C2A3D2AC1
:1004B800682A0130A1020130F6000310A20DA30D35
:1004C800A40DA50DF60B612AA41B6B2A6C2A722AAF
:1004D800023021020318712A722A5D2A2118752A0E
:1004E800762A7E2AFF30A205FF30A3057F30A405B7
:1004F800FF30A5050310A10C2108F600F701F8014B
:10050800F90118300310F60DF70DF80DF90DFF3E3F
:10051800031D862A7608A2047708A3047808A40491
:100528007908A504200803199A2A9B2AA02AF51FEE
:100538009E2A9F2AA02AA5172508F5002408F4005A
:100548002308F3002208F20008000A128A114E2438
:100558000A128A11013083120313CA000030CB003B
:100568000030CC000030CD004A08D0024B08031CF4
:100578004B0FBF2AC02AD1024C08031C4C0FC52AB6
:10058800C62AD2024D08031C4D0FCB2ACC2AD3020F
:10059800500A031DD92A510A031DD92A520A031DDC
:1005A800D92A530A031DD92ADA2A2C2B00308312A0
:1005B8000313D3000030D2000030D100FA30D0004D
:1005C80000300A128A111C240A128A117308831235
:1005D8000313CF007208CE004E08F2004F08F30054
:1005E800F401F50100300A128A11F3210A128A1166
:1005F800750883120313AD007408AC007308AB00D0
:100608007208AA004130A9002330A800AE30A70024
:100618001430A6000A128A1129200A128A1183129C
:1006280003132908C3002808C2002708C1002608A8
:10063800C0000A128A1135230A128A118312031381
:100648004308DB004208DA004108D9004008D80016
:100658000A128A11AB230A128A11AE2A0A128A11C7
:100668000C28031083120313420D430DC9004908D7
:10067800031D3F2B402B492B0030C3000030C20024
:100688000030C1000030C000AA2B4008C400410857
:10069800C5004208C6004308C7001F300310C70C36
:1006A800C60CC50CC40CFF3E031D522B4408C800E1
:1006B800C217FF30C005FF30C105FF30C20500304A
:1006C800C3059630C902C91F6A2B6B2B832B4908B7
:1006D800803A973E0318712B722B732B402B0130F5
:1006E8000310C30CC20CC10CC00CFF3E031D742BBD
:1006F8000130C907031D812B822B732B9A2B2030C5
:100708004902031C882B892B952B402B0130C400F0
:100718000310C00DC10DC20DC30DC40B8C2B0130CD
:10072800C9024908031D992B9A2B8A2B48080319DB
:100738009E2B9F2BAA2BC009C109C209C309C00A55
:100748000319C10A0319C20A0319C30A080083124C
:1007580003135B085F02031DBB2B5A085E02031DCF
:10076800BB2B59085D02031DBB2B58085C020318FC
:10077800BE2BBF2BC12B0814D52B5F08031DD12B13
:100788005E08031DD12B5D08031DD12B64305C026C
:10079800031DCE2B0318D12BD22BD52B8312031379
:1007A8000810013083120313DC07003003180130EE
:1007B800DD07003003180130DE0700300318013070
:1007C800DF0765305C065D045E045F04031DED2BE6
:1007D800EE2BF82B003083120313DF000030DE000D
:1007E8000030DD000030DC0008000B1DFC2BFD2B69
:1007F800152C831203130108083E81000130E0071D
:100808000318E10A0030E1077B086106031D0E2C7E
:100818007A086006031D112C122C142CE001E1014A
:100828000B1171088A00700E8300FE0E7E0E0900FF
:10083800F7007708F40003300310F40DFF3E031DA2
:10084800202C831203131F08C73974049F001F1537
:100858001F192F2C302C2C2C1E08F600831603137E
:100868001E08F5007608F3007508F20008007E08F7
:100878008A007F0882000A128A113B240A128A1110
:100888008000840A04087D0603190034FF0A03194E
:10089800FE0A3F2C83120313880183160313880171
:1008A8000A128A116D240A128A118B170B170A1261
:1008B8008A1177240A128A110800FA3400340034A5
:1008C80000346434003400340034323400340034EA
:1008D8000034831603138112811506308312031323
:1008E80081008B160800831203131F148316031349
:0408F8009F1708003E
:02400E00FB3F76
:00000001FF
